{
  "_format": "hh-sol-artifact-1",
  "contractName": "Upload",
  "sourceName": "contracts/Upload.sol",
  "abi": [
    {
      "inputs": [
        {
          "internalType": "address",
          "name": "_user",
          "type": "address"
        },
        {
          "internalType": "string",
          "name": "url",
          "type": "string"
        }
      ],
      "name": "add",
      "outputs": [],
      "stateMutability": "nonpayable",
      "type": "function"
    },
    {
      "inputs": [
        {
          "internalType": "string",
          "name": "userAddress",
          "type": "string"
        },
        {
          "internalType": "string",
          "name": "fileName",
          "type": "string"
        },
        {
          "internalType": "string",
          "name": "_ipfsURL",
          "type": "string"
        },
        {
          "internalType": "string",
          "name": "sha256Hash",
          "type": "string"
        }
      ],
      "name": "addPasswordHash",
      "outputs": [],
      "stateMutability": "nonpayable",
      "type": "function"
    },
    {
      "inputs": [],
      "name": "getAllFiles",
      "outputs": [
        {
          "components": [
            {
              "internalType": "string",
              "name": "userAddress",
              "type": "string"
            },
            {
              "internalType": "string",
              "name": "fileName",
              "type": "string"
            },
            {
              "internalType": "string",
              "name": "ipfsURL",
              "type": "string"
            },
            {
              "internalType": "string",
              "name": "sha256Hash",
              "type": "string"
            }
          ],
          "internalType": "struct Upload.File[]",
          "name": "",
          "type": "tuple[]"
        }
      ],
      "stateMutability": "view",
      "type": "function"
    },
    {
      "inputs": [],
      "name": "getPasswordHashes",
      "outputs": [
        {
          "components": [
            {
              "internalType": "string",
              "name": "userAddress",
              "type": "string"
            },
            {
              "internalType": "string",
              "name": "fileName",
              "type": "string"
            },
            {
              "internalType": "string",
              "name": "ipfsURL",
              "type": "string"
            },
            {
              "internalType": "string",
              "name": "sha256Hash",
              "type": "string"
            }
          ],
          "internalType": "struct Upload.File[]",
          "name": "",
          "type": "tuple[]"
        }
      ],
      "stateMutability": "view",
      "type": "function"
    },
    {
      "inputs": [],
      "name": "getUserFileNamesAndHashes",
      "outputs": [
        {
          "internalType": "string[]",
          "name": "",
          "type": "string[]"
        },
        {
          "internalType": "string[]",
          "name": "",
          "type": "string[]"
        }
      ],
      "stateMutability": "view",
      "type": "function"
    },
    {
      "inputs": [
        {
          "internalType": "address",
          "name": "owner",
          "type": "address"
        },
        {
          "internalType": "string",
          "name": "fileName",
          "type": "string"
        },
        {
          "internalType": "string",
          "name": "inputSha256",
          "type": "string"
        }
      ],
      "name": "requestDownload",
      "outputs": [
        {
          "internalType": "string",
          "name": "ipfsURL",
          "type": "string"
        }
      ],
      "stateMutability": "view",
      "type": "function"
    },
    {
      "inputs": [
        {
          "internalType": "address",
          "name": "user",
          "type": "address"
        },
        {
          "internalType": "string",
          "name": "fileName",
          "type": "string"
        },
        {
          "internalType": "string",
          "name": "passwordAttemptHash",
          "type": "string"
        }
      ],
      "name": "verifyPassword",
      "outputs": [
        {
          "internalType": "bool",
          "name": "",
          "type": "bool"
        }
      ],
      "stateMutability": "view",
      "type": "function"
    }
  ],
  "bytecode": "0x608060405234801561001057600080fd5b50612273806100206000396000f3fe608060405234801561001057600080fd5b506004361061007d5760003560e01c806336d6da551161005b57806336d6da55146101005780634b4c15891461011c578063790c905c14610138578063ff24b5d5146101575761007d565b80631108efad146100825780631b753d81146100b2578063307780ae146100e2575b600080fd5b61009c600480360381019061009791906118de565b610175565b6040516100a99190611e1b565b60405180910390f35b6100cc60048036038101906100c791906118de565b61037a565b6040516100d99190611e36565b60405180910390f35b6100ea610840565b6040516100f79190611df9565b60405180910390f35b61011a6004803603810190610115919061188a565b610b24565b005b6101366004803603810190610131919061195d565b610ba0565b005b610140610db2565b60405161014e929190611dc2565b60405180910390f35b61015f6111c2565b60405161016c9190611df9565b60405180910390f35b600080600090505b600260008673ffffffffffffffffffffffffffffffffffffffff1673ffffffffffffffffffffffffffffffffffffffff1681526020019081526020016000208054905081101561036d57836040516020016101d89190611d94565b60405160208183030381529060405280519060200120600260008773ffffffffffffffffffffffffffffffffffffffff1673ffffffffffffffffffffffffffffffffffffffff1681526020019081526020016000208281548110610265577f4e487b7100000000000000000000000000000000000000000000000000000000600052603260045260246000fd5b90600052602060002090600402016001016040516020016102869190611dab565b6040516020818303038152906040528051906020012014801561034b57508280519060200120600260008773ffffffffffffffffffffffffffffffffffffffff1673ffffffffffffffffffffffffffffffffffffffff1681526020019081526020016000208281548110610323577f4e487b7100000000000000000000000000000000000000000000000000000000600052603260045260246000fd5b90600052602060002090600402016003016040516103419190611d7d565b6040518091039020145b1561035a576001915050610373565b8080610365906120f0565b91505061017d565b50600090505b9392505050565b60606000600260008673ffffffffffffffffffffffffffffffffffffffff1673ffffffffffffffffffffffffffffffffffffffff168152602001908152602001600020805480602002602001604051908101604052809291908181526020016000905b8282101561065757838290600052602060002090600402016040518060800160405290816000820180546104109061208d565b80601f016020809104026020016040519081016040528092919081815260200182805461043c9061208d565b80156104895780601f1061045e57610100808354040283529160200191610489565b820191906000526020600020905b81548152906001019060200180831161046c57829003601f168201915b505050505081526020016001820180546104a29061208d565b80601f01602080910402602001604051908101604052809291908181526020018280546104ce9061208d565b801561051b5780601f106104f05761010080835404028352916020019161051b565b820191906000526020600020905b8154815290600101906020018083116104fe57829003601f168201915b505050505081526020016002820180546105349061208d565b80601f01602080910402602001604051908101604052809291908181526020018280546105609061208d565b80156105ad5780601f10610582576101008083540402835291602001916105ad565b820191906000526020600020905b81548152906001019060200180831161059057829003601f168201915b505050505081526020016003820180546105c69061208d565b80601f01602080910402602001604051908101604052809291908181526020018280546105f29061208d565b801561063f5780601f106106145761010080835404028352916020019161063f565b820191906000526020600020905b81548152906001019060200180831161062257829003601f168201915b505050505081525050815260200190600101906103dd565b50505050905060005b81518110156107fd578460405160200161067a9190611d94565b604051602081830303815290604052805190602001208282815181106106c9577f4e487b7100000000000000000000000000000000000000000000000000000000600052603260045260246000fd5b6020026020010151602001516040516020016106e59190611d94565b604051602081830303815290604052805190602001201480156107975750836040516020016107149190611d94565b60405160208183030381529060405280519060200120828281518110610763577f4e487b7100000000000000000000000000000000000000000000000000000000600052603260045260246000fd5b60200260200101516060015160405160200161077f9190611d94565b60405160208183030381529060405280519060200120145b156107ea578181815181106107d5577f4e487b7100000000000000000000000000000000000000000000000000000000600052603260045260246000fd5b60200260200101516040015192505050610839565b80806107f5906120f0565b915050610660565b506040517f08c379a000000000000000000000000000000000000000000000000000000000815260040161083090611e58565b60405180910390fd5b9392505050565b6060600260003373ffffffffffffffffffffffffffffffffffffffff1673ffffffffffffffffffffffffffffffffffffffff168152602001908152602001600020805480602002602001604051908101604052809291908181526020016000905b82821015610b1b57838290600052602060002090600402016040518060800160405290816000820180546108d49061208d565b80601f01602080910402602001604051908101604052809291908181526020018280546109009061208d565b801561094d5780601f106109225761010080835404028352916020019161094d565b820191906000526020600020905b81548152906001019060200180831161093057829003601f168201915b505050505081526020016001820180546109669061208d565b80601f01602080910402602001604051908101604052809291908181526020018280546109929061208d565b80156109df5780601f106109b4576101008083540402835291602001916109df565b820191906000526020600020905b8154815290600101906020018083116109c257829003601f168201915b505050505081526020016002820180546109f89061208d565b80601f0160208091040260200160405190810160405280929190818152602001828054610a249061208d565b8015610a715780601f10610a4657610100808354040283529160200191610a71565b820191906000526020600020905b815481529060010190602001808311610a5457829003601f168201915b50505050508152602001600382018054610a8a9061208d565b80601f0160208091040260200160405190810160405280929190818152602001828054610ab69061208d565b8015610b035780601f10610ad857610100808354040283529160200191610b03565b820191906000526020600020905b815481529060010190602001808311610ae657829003601f168201915b505050505081525050815260200190600101906108a1565b50505050905090565b6000808373ffffffffffffffffffffffffffffffffffffffff1673ffffffffffffffffffffffffffffffffffffffff16815260200190815260200160002081908060018154018082558091505060019003906000526020600020016000909190919091509080519060200190610b9b929190611742565b505050565b600460003373ffffffffffffffffffffffffffffffffffffffff1673ffffffffffffffffffffffffffffffffffffffff16815260200190815260200160002060009054906101000a900460ff16610cad576003339080600181540180825580915050600190039060005260206000200160009091909190916101000a81548173ffffffffffffffffffffffffffffffffffffffff021916908373ffffffffffffffffffffffffffffffffffffffff1602179055506001600460003373ffffffffffffffffffffffffffffffffffffffff1673ffffffffffffffffffffffffffffffffffffffff16815260200190815260200160002060006101000a81548160ff0219169083151502179055505b600260003373ffffffffffffffffffffffffffffffffffffffff1673ffffffffffffffffffffffffffffffffffffffff16815260200190815260200160002060405180608001604052808681526020018581526020018481526020018381525090806001815401808255809150506001900390600052602060002090600402016000909190919091506000820151816000019080519060200190610d52929190611742565b506020820151816001019080519060200190610d6f929190611742565b506040820151816002019080519060200190610d8c929190611742565b506060820151816003019080519060200190610da9929190611742565b50505050505050565b6060806000600260003373ffffffffffffffffffffffffffffffffffffffff1673ffffffffffffffffffffffffffffffffffffffff16815260200190815260200160002080549050905060008167ffffffffffffffff811115610e3e577f4e487b7100000000000000000000000000000000000000000000000000000000600052604160045260246000fd5b604051908082528060200260200182016040528015610e7157816020015b6060815260200190600190039081610e5c5790505b50905060008267ffffffffffffffff811115610eb6577f4e487b7100000000000000000000000000000000000000000000000000000000600052604160045260246000fd5b604051908082528060200260200182016040528015610ee957816020015b6060815260200190600190039081610ed45790505b50905060005b838110156111b457600260003373ffffffffffffffffffffffffffffffffffffffff1673ffffffffffffffffffffffffffffffffffffffff1681526020019081526020016000208181548110610f6e577f4e487b7100000000000000000000000000000000000000000000000000000000600052603260045260246000fd5b90600052602060002090600402016001018054610f8a9061208d565b80601f0160208091040260200160405190810160405280929190818152602001828054610fb69061208d565b80156110035780601f10610fd857610100808354040283529160200191611003565b820191906000526020600020905b815481529060010190602001808311610fe657829003601f168201915b5050505050838281518110611041577f4e487b7100000000000000000000000000000000000000000000000000000000600052603260045260246000fd5b6020026020010181905250600260003373ffffffffffffffffffffffffffffffffffffffff1673ffffffffffffffffffffffffffffffffffffffff16815260200190815260200160002081815481106110c3577f4e487b7100000000000000000000000000000000000000000000000000000000600052603260045260246000fd5b906000526020600020906004020160030180546110df9061208d565b80601f016020809104026020016040519081016040528092919081815260200182805461110b9061208d565b80156111585780601f1061112d57610100808354040283529160200191611158565b820191906000526020600020905b81548152906001019060200180831161113b57829003601f168201915b5050505050828281518110611196577f4e487b7100000000000000000000000000000000000000000000000000000000600052603260045260246000fd5b602002602001018190525080806111ac906120f0565b915050610eef565b508181945094505050509091565b60606000805b60038054905081101561129c576002600060038381548110611213577f4e487b7100000000000000000000000000000000000000000000000000000000600052603260045260246000fd5b9060005260206000200160009054906101000a900473ffffffffffffffffffffffffffffffffffffffff1673ffffffffffffffffffffffffffffffffffffffff1673ffffffffffffffffffffffffffffffffffffffff16815260200190815260200160002080549050826112879190611fad565b91508080611294906120f0565b9150506111c8565b5060008167ffffffffffffffff8111156112df577f4e487b7100000000000000000000000000000000000000000000000000000000600052604160045260246000fd5b60405190808252806020026020018201604052801561131857816020015b6113056117c8565b8152602001906001900390816112fd5790505b5090506000805b600380549050811015611738576000600260006003848154811061136c577f4e487b7100000000000000000000000000000000000000000000000000000000600052603260045260246000fd5b9060005260206000200160009054906101000a900473ffffffffffffffffffffffffffffffffffffffff1673ffffffffffffffffffffffffffffffffffffffff1673ffffffffffffffffffffffffffffffffffffffff168152602001908152602001600020805480602002602001604051908101604052809291908181526020016000905b8282101561166b57838290600052602060002090600402016040518060800160405290816000820180546114249061208d565b80601f01602080910402602001604051908101604052809291908181526020018280546114509061208d565b801561149d5780601f106114725761010080835404028352916020019161149d565b820191906000526020600020905b81548152906001019060200180831161148057829003601f168201915b505050505081526020016001820180546114b69061208d565b80601f01602080910402602001604051908101604052809291908181526020018280546114e29061208d565b801561152f5780601f106115045761010080835404028352916020019161152f565b820191906000526020600020905b81548152906001019060200180831161151257829003601f168201915b505050505081526020016002820180546115489061208d565b80601f01602080910402602001604051908101604052809291908181526020018280546115749061208d565b80156115c15780601f10611596576101008083540402835291602001916115c1565b820191906000526020600020905b8154815290600101906020018083116115a457829003601f168201915b505050505081526020016003820180546115da9061208d565b80601f01602080910402602001604051908101604052809291908181526020018280546116069061208d565b80156116535780601f1061162857610100808354040283529160200191611653565b820191906000526020600020905b81548152906001019060200180831161163657829003601f168201915b505050505081525050815260200190600101906113f1565b50505050905060005b8151811015611723578181815181106116b6577f4e487b7100000000000000000000000000000000000000000000000000000000600052603260045260246000fd5b60200260200101518585815181106116f7577f4e487b7100000000000000000000000000000000000000000000000000000000600052603260045260246000fd5b6020026020010181905250838061170d906120f0565b945050808061171b906120f0565b915050611674565b50508080611730906120f0565b91505061131f565b5081935050505090565b82805461174e9061208d565b90600052602060002090601f01602090048101928261177057600085556117b7565b82601f1061178957805160ff19168380011785556117b7565b828001600101855582156117b7579182015b828111156117b657825182559160200191906001019061179b565b5b5090506117c491906117f0565b5090565b6040518060800160405280606081526020016060815260200160608152602001606081525090565b5b808211156118095760008160009055506001016117f1565b5090565b600061182061181b84611e9d565b611e78565b90508281526020810184848401111561183857600080fd5b61184384828561204b565b509392505050565b60008135905061185a81612226565b92915050565b600082601f83011261187157600080fd5b813561188184826020860161180d565b91505092915050565b6000806040838503121561189d57600080fd5b60006118ab8582860161184b565b925050602083013567ffffffffffffffff8111156118c857600080fd5b6118d485828601611860565b9150509250929050565b6000806000606084860312156118f357600080fd5b60006119018682870161184b565b935050602084013567ffffffffffffffff81111561191e57600080fd5b61192a86828701611860565b925050604084013567ffffffffffffffff81111561194757600080fd5b61195386828701611860565b9150509250925092565b6000806000806080858703121561197357600080fd5b600085013567ffffffffffffffff81111561198d57600080fd5b61199987828801611860565b945050602085013567ffffffffffffffff8111156119b657600080fd5b6119c287828801611860565b935050604085013567ffffffffffffffff8111156119df57600080fd5b6119eb87828801611860565b925050606085013567ffffffffffffffff811115611a0857600080fd5b611a1487828801611860565b91505092959194509250565b6000611a2c8383611bc0565b905092915050565b6000611a408383611d05565b905092915050565b6000611a5382611f18565b611a5d8185611f53565b935083602082028501611a6f85611ece565b8060005b85811015611aab5784840389528151611a8c8582611a20565b9450611a9783611f39565b925060208a01995050600181019050611a73565b50829750879550505050505092915050565b6000611ac882611f23565b611ad28185611f64565b935083602082028501611ae485611ede565b8060005b85811015611b205784840389528151611b018582611a34565b9450611b0c83611f46565b925060208a01995050600181019050611ae8565b50829750879550505050505092915050565b611b3b81612015565b82525050565b60008154611b4e8161208d565b611b588186611f75565b94506001821660008114611b735760018114611b8457611bb7565b60ff19831686528186019350611bb7565b611b8d85611eee565b60005b83811015611baf57815481890152600182019150602081019050611b90565b838801955050505b50505092915050565b6000611bcb82611f2e565b611bd58185611f80565b9350611be581856020860161205a565b611bee816121c6565b840191505092915050565b6000611c0482611f2e565b611c0e8185611f91565b9350611c1e81856020860161205a565b611c27816121c6565b840191505092915050565b6000611c3d82611f2e565b611c478185611fa2565b9350611c5781856020860161205a565b80840191505092915050565b60008154611c708161208d565b611c7a8186611fa2565b94506001821660008114611c955760018114611ca657611cd9565b60ff19831686528186019350611cd9565b611caf85611f03565b60005b83811015611cd157815481890152600182019150602081019050611cb2565b838801955050505b50505092915050565b6000611cef602683611f91565b9150611cfa826121d7565b604082019050919050565b60006080830160008301518482036000860152611d228282611bc0565b91505060208301518482036020860152611d3c8282611bc0565b91505060408301518482036040860152611d568282611bc0565b91505060608301518482036060860152611d708282611bc0565b9150508091505092915050565b6000611d898284611b41565b915081905092915050565b6000611da08284611c32565b915081905092915050565b6000611db78284611c63565b915081905092915050565b60006040820190508181036000830152611ddc8185611a48565b90508181036020830152611df08184611a48565b90509392505050565b60006020820190508181036000830152611e138184611abd565b905092915050565b6000602082019050611e306000830184611b32565b92915050565b60006020820190508181036000830152611e508184611bf9565b905092915050565b60006020820190508181036000830152611e7181611ce2565b9050919050565b6000611e82611e93565b9050611e8e82826120bf565b919050565b6000604051905090565b600067ffffffffffffffff821115611eb857611eb7612197565b5b611ec1826121c6565b9050602081019050919050565b6000819050602082019050919050565b6000819050602082019050919050565b60008190508160005260206000209050919050565b60008190508160005260206000209050919050565b600081519050919050565b600081519050919050565b600081519050919050565b6000602082019050919050565b6000602082019050919050565b600082825260208201905092915050565b600082825260208201905092915050565b600081905092915050565b600082825260208201905092915050565b600082825260208201905092915050565b600081905092915050565b6000611fb882612041565b9150611fc383612041565b9250827fffffffffffffffffffffffffffffffffffffffffffffffffffffffffffffffff03821115611ff857611ff7612139565b5b828201905092915050565b600061200e82612021565b9050919050565b60008115159050919050565b600073ffffffffffffffffffffffffffffffffffffffff82169050919050565b6000819050919050565b82818337600083830152505050565b60005b8381101561207857808201518184015260208101905061205d565b83811115612087576000848401525b50505050565b600060028204905060018216806120a557607f821691505b602082108114156120b9576120b8612168565b5b50919050565b6120c8826121c6565b810181811067ffffffffffffffff821117156120e7576120e6612197565b5b80604052505050565b60006120fb82612041565b91507fffffffffffffffffffffffffffffffffffffffffffffffffffffffffffffffff82141561212e5761212d612139565b5b600182019050919050565b7f4e487b7100000000000000000000000000000000000000000000000000000000600052601160045260246000fd5b7f4e487b7100000000000000000000000000000000000000000000000000000000600052602260045260246000fd5b7f4e487b7100000000000000000000000000000000000000000000000000000000600052604160045260246000fd5b6000601f19601f8301169050919050565b7f496e76616c6964205348412d3235362068617368206f722066696c65206e6f7460008201527f20666f756e640000000000000000000000000000000000000000000000000000602082015250565b61222f81612003565b811461223a57600080fd5b5056fea2646970667358221220e969e8b4dae29bffb22f3d38a8bde42ee4f24809618c17429605dd590ecfa50a64736f6c63430008030033",
  "linkReferences": {},
  "deployedLinkReferences": {}
}