{
  "_format": "hh-sol-artifact-1",
  "contractName": "Upload",
  "sourceName": "contracts/Upload.sol",
  "abi": [
    {
      "inputs": [
        {
          "internalType": "address",
          "name": "_user",
          "type": "address"
        },
        {
          "internalType": "string",
          "name": "url",
          "type": "string"
        }
      ],
      "name": "add",
      "outputs": [],
      "stateMutability": "nonpayable",
      "type": "function"
    },
    {
      "inputs": [
        {
          "internalType": "string",
          "name": "userAddress",
          "type": "string"
        },
        {
          "internalType": "string",
          "name": "fileName",
          "type": "string"
        },
        {
          "internalType": "string",
          "name": "_ipfsURL",
          "type": "string"
        },
        {
          "internalType": "string",
          "name": "sha256Hash",
          "type": "string"
        }
      ],
      "name": "addPasswordHash",
      "outputs": [],
      "stateMutability": "nonpayable",
      "type": "function"
    },
    {
      "inputs": [],
      "name": "getAllFiles",
      "outputs": [
        {
          "components": [
            {
              "internalType": "string",
              "name": "userAddress",
              "type": "string"
            },
            {
              "internalType": "string",
              "name": "fileName",
              "type": "string"
            },
            {
              "internalType": "string",
              "name": "ipfsURL",
              "type": "string"
            },
            {
              "internalType": "string",
              "name": "sha256Hash",
              "type": "string"
            }
          ],
          "internalType": "struct Upload.File[]",
          "name": "",
          "type": "tuple[]"
        }
      ],
      "stateMutability": "view",
      "type": "function"
    },
    {
      "inputs": [],
      "name": "getPasswordHashes",
      "outputs": [
        {
          "components": [
            {
              "internalType": "string",
              "name": "userAddress",
              "type": "string"
            },
            {
              "internalType": "string",
              "name": "fileName",
              "type": "string"
            },
            {
              "internalType": "string",
              "name": "ipfsURL",
              "type": "string"
            },
            {
              "internalType": "string",
              "name": "sha256Hash",
              "type": "string"
            }
          ],
          "internalType": "struct Upload.File[]",
          "name": "",
          "type": "tuple[]"
        }
      ],
      "stateMutability": "view",
      "type": "function"
    },
    {
      "inputs": [],
      "name": "getUserFileNamesAndHashes",
      "outputs": [
        {
          "internalType": "string[]",
          "name": "",
          "type": "string[]"
        },
        {
          "internalType": "string[]",
          "name": "",
          "type": "string[]"
        }
      ],
      "stateMutability": "view",
      "type": "function"
    },
    {
      "inputs": [
        {
          "internalType": "address",
          "name": "owner",
          "type": "address"
        },
        {
          "internalType": "string",
          "name": "fileName",
          "type": "string"
        },
        {
          "internalType": "string",
          "name": "inputSha256",
          "type": "string"
        }
      ],
      "name": "requestDownload",
      "outputs": [
        {
          "internalType": "string",
          "name": "ipfsURL",
          "type": "string"
        }
      ],
      "stateMutability": "view",
      "type": "function"
    },
    {
      "inputs": [
        {
          "internalType": "address",
          "name": "user",
          "type": "address"
        },
        {
          "internalType": "string",
          "name": "fileName",
          "type": "string"
        },
        {
          "internalType": "string",
          "name": "passwordAttempt",
          "type": "string"
        }
      ],
      "name": "verifyPassword",
      "outputs": [
        {
          "internalType": "bool",
          "name": "",
          "type": "bool"
        }
      ],
      "stateMutability": "view",
      "type": "function"
    }
  ],
  "bytecode": "0x608060405234801561001057600080fd5b506121ed806100206000396000f3fe608060405234801561001057600080fd5b506004361061007d5760003560e01c806336d6da551161005b57806336d6da55146101005780634b4c15891461011c578063790c905c14610138578063ff24b5d5146101575761007d565b80631108efad146100825780631b753d81146100b2578063307780ae146100e2575b600080fd5b61009c6004803603810190610097919061190e565b610175565b6040516100a99190611db5565b60405180910390f35b6100cc60048036038101906100c7919061190e565b6103aa565b6040516100d99190611dd0565b60405180910390f35b6100ea610870565b6040516100f79190611d93565b60405180910390f35b61011a600480360381019061011591906118ba565b610b54565b005b6101366004803603810190610131919061198d565b610bd0565b005b610140610de2565b60405161014e929190611d5c565b60405180910390f35b61015f6111f2565b60405161016c9190611d93565b60405180910390f35b600080600090505b600260008673ffffffffffffffffffffffffffffffffffffffff1673ffffffffffffffffffffffffffffffffffffffff1681526020019081526020016000208054905081101561039d57600260008673ffffffffffffffffffffffffffffffffffffffff1673ffffffffffffffffffffffffffffffffffffffff168152602001908152602001600020818154811061023e577f4e487b7100000000000000000000000000000000000000000000000000000000600052603260045260246000fd5b906000526020600020906004020160030160405160200161025f9190611d45565b60405160208183030381529060405280519060200120836040516020016102869190611d2e565b6040516020818303038152906040528051906020012014801561037b5750836040516020016102b59190611d2e565b60405160208183030381529060405280519060200120600260008773ffffffffffffffffffffffffffffffffffffffff1673ffffffffffffffffffffffffffffffffffffffff1681526020019081526020016000208281548110610342577f4e487b7100000000000000000000000000000000000000000000000000000000600052603260045260246000fd5b90600052602060002090600402016001016040516020016103639190611d45565b60405160208183030381529060405280519060200120145b1561038a5760019150506103a3565b80806103959061206a565b91505061017d565b50600090505b9392505050565b60606000600260008673ffffffffffffffffffffffffffffffffffffffff1673ffffffffffffffffffffffffffffffffffffffff168152602001908152602001600020805480602002602001604051908101604052809291908181526020016000905b82821015610687578382906000526020600020906004020160405180608001604052908160008201805461044090612007565b80601f016020809104026020016040519081016040528092919081815260200182805461046c90612007565b80156104b95780601f1061048e576101008083540402835291602001916104b9565b820191906000526020600020905b81548152906001019060200180831161049c57829003601f168201915b505050505081526020016001820180546104d290612007565b80601f01602080910402602001604051908101604052809291908181526020018280546104fe90612007565b801561054b5780601f106105205761010080835404028352916020019161054b565b820191906000526020600020905b81548152906001019060200180831161052e57829003601f168201915b5050505050815260200160028201805461056490612007565b80601f016020809104026020016040519081016040528092919081815260200182805461059090612007565b80156105dd5780601f106105b2576101008083540402835291602001916105dd565b820191906000526020600020905b8154815290600101906020018083116105c057829003601f168201915b505050505081526020016003820180546105f690612007565b80601f016020809104026020016040519081016040528092919081815260200182805461062290612007565b801561066f5780601f106106445761010080835404028352916020019161066f565b820191906000526020600020905b81548152906001019060200180831161065257829003601f168201915b5050505050815250508152602001906001019061040d565b50505050905060005b815181101561082d57846040516020016106aa9190611d2e565b604051602081830303815290604052805190602001208282815181106106f9577f4e487b7100000000000000000000000000000000000000000000000000000000600052603260045260246000fd5b6020026020010151602001516040516020016107159190611d2e565b604051602081830303815290604052805190602001201480156107c75750836040516020016107449190611d2e565b60405160208183030381529060405280519060200120828281518110610793577f4e487b7100000000000000000000000000000000000000000000000000000000600052603260045260246000fd5b6020026020010151606001516040516020016107af9190611d2e565b60405160208183030381529060405280519060200120145b1561081a57818181518110610805577f4e487b7100000000000000000000000000000000000000000000000000000000600052603260045260246000fd5b60200260200101516040015192505050610869565b80806108259061206a565b915050610690565b506040517f08c379a000000000000000000000000000000000000000000000000000000000815260040161086090611df2565b60405180910390fd5b9392505050565b6060600260003373ffffffffffffffffffffffffffffffffffffffff1673ffffffffffffffffffffffffffffffffffffffff168152602001908152602001600020805480602002602001604051908101604052809291908181526020016000905b82821015610b4b578382906000526020600020906004020160405180608001604052908160008201805461090490612007565b80601f016020809104026020016040519081016040528092919081815260200182805461093090612007565b801561097d5780601f106109525761010080835404028352916020019161097d565b820191906000526020600020905b81548152906001019060200180831161096057829003601f168201915b5050505050815260200160018201805461099690612007565b80601f01602080910402602001604051908101604052809291908181526020018280546109c290612007565b8015610a0f5780601f106109e457610100808354040283529160200191610a0f565b820191906000526020600020905b8154815290600101906020018083116109f257829003601f168201915b50505050508152602001600282018054610a2890612007565b80601f0160208091040260200160405190810160405280929190818152602001828054610a5490612007565b8015610aa15780601f10610a7657610100808354040283529160200191610aa1565b820191906000526020600020905b815481529060010190602001808311610a8457829003601f168201915b50505050508152602001600382018054610aba90612007565b80601f0160208091040260200160405190810160405280929190818152602001828054610ae690612007565b8015610b335780601f10610b0857610100808354040283529160200191610b33565b820191906000526020600020905b815481529060010190602001808311610b1657829003601f168201915b505050505081525050815260200190600101906108d1565b50505050905090565b6000808373ffffffffffffffffffffffffffffffffffffffff1673ffffffffffffffffffffffffffffffffffffffff16815260200190815260200160002081908060018154018082558091505060019003906000526020600020016000909190919091509080519060200190610bcb929190611772565b505050565b600460003373ffffffffffffffffffffffffffffffffffffffff1673ffffffffffffffffffffffffffffffffffffffff16815260200190815260200160002060009054906101000a900460ff16610cdd576003339080600181540180825580915050600190039060005260206000200160009091909190916101000a81548173ffffffffffffffffffffffffffffffffffffffff021916908373ffffffffffffffffffffffffffffffffffffffff1602179055506001600460003373ffffffffffffffffffffffffffffffffffffffff1673ffffffffffffffffffffffffffffffffffffffff16815260200190815260200160002060006101000a81548160ff0219169083151502179055505b600260003373ffffffffffffffffffffffffffffffffffffffff1673ffffffffffffffffffffffffffffffffffffffff16815260200190815260200160002060405180608001604052808681526020018581526020018481526020018381525090806001815401808255809150506001900390600052602060002090600402016000909190919091506000820151816000019080519060200190610d82929190611772565b506020820151816001019080519060200190610d9f929190611772565b506040820151816002019080519060200190610dbc929190611772565b506060820151816003019080519060200190610dd9929190611772565b50505050505050565b6060806000600260003373ffffffffffffffffffffffffffffffffffffffff1673ffffffffffffffffffffffffffffffffffffffff16815260200190815260200160002080549050905060008167ffffffffffffffff811115610e6e577f4e487b7100000000000000000000000000000000000000000000000000000000600052604160045260246000fd5b604051908082528060200260200182016040528015610ea157816020015b6060815260200190600190039081610e8c5790505b50905060008267ffffffffffffffff811115610ee6577f4e487b7100000000000000000000000000000000000000000000000000000000600052604160045260246000fd5b604051908082528060200260200182016040528015610f1957816020015b6060815260200190600190039081610f045790505b50905060005b838110156111e457600260003373ffffffffffffffffffffffffffffffffffffffff1673ffffffffffffffffffffffffffffffffffffffff1681526020019081526020016000208181548110610f9e577f4e487b7100000000000000000000000000000000000000000000000000000000600052603260045260246000fd5b90600052602060002090600402016001018054610fba90612007565b80601f0160208091040260200160405190810160405280929190818152602001828054610fe690612007565b80156110335780601f1061100857610100808354040283529160200191611033565b820191906000526020600020905b81548152906001019060200180831161101657829003601f168201915b5050505050838281518110611071577f4e487b7100000000000000000000000000000000000000000000000000000000600052603260045260246000fd5b6020026020010181905250600260003373ffffffffffffffffffffffffffffffffffffffff1673ffffffffffffffffffffffffffffffffffffffff16815260200190815260200160002081815481106110f3577f4e487b7100000000000000000000000000000000000000000000000000000000600052603260045260246000fd5b9060005260206000209060040201600301805461110f90612007565b80601f016020809104026020016040519081016040528092919081815260200182805461113b90612007565b80156111885780601f1061115d57610100808354040283529160200191611188565b820191906000526020600020905b81548152906001019060200180831161116b57829003601f168201915b50505050508282815181106111c6577f4e487b7100000000000000000000000000000000000000000000000000000000600052603260045260246000fd5b602002602001018190525080806111dc9061206a565b915050610f1f565b508181945094505050509091565b60606000805b6003805490508110156112cc576002600060038381548110611243577f4e487b7100000000000000000000000000000000000000000000000000000000600052603260045260246000fd5b9060005260206000200160009054906101000a900473ffffffffffffffffffffffffffffffffffffffff1673ffffffffffffffffffffffffffffffffffffffff1673ffffffffffffffffffffffffffffffffffffffff16815260200190815260200160002080549050826112b79190611f27565b915080806112c49061206a565b9150506111f8565b5060008167ffffffffffffffff81111561130f577f4e487b7100000000000000000000000000000000000000000000000000000000600052604160045260246000fd5b60405190808252806020026020018201604052801561134857816020015b6113356117f8565b81526020019060019003908161132d5790505b5090506000805b600380549050811015611768576000600260006003848154811061139c577f4e487b7100000000000000000000000000000000000000000000000000000000600052603260045260246000fd5b9060005260206000200160009054906101000a900473ffffffffffffffffffffffffffffffffffffffff1673ffffffffffffffffffffffffffffffffffffffff1673ffffffffffffffffffffffffffffffffffffffff168152602001908152602001600020805480602002602001604051908101604052809291908181526020016000905b8282101561169b578382906000526020600020906004020160405180608001604052908160008201805461145490612007565b80601f016020809104026020016040519081016040528092919081815260200182805461148090612007565b80156114cd5780601f106114a2576101008083540402835291602001916114cd565b820191906000526020600020905b8154815290600101906020018083116114b057829003601f168201915b505050505081526020016001820180546114e690612007565b80601f016020809104026020016040519081016040528092919081815260200182805461151290612007565b801561155f5780601f106115345761010080835404028352916020019161155f565b820191906000526020600020905b81548152906001019060200180831161154257829003601f168201915b5050505050815260200160028201805461157890612007565b80601f01602080910402602001604051908101604052809291908181526020018280546115a490612007565b80156115f15780601f106115c6576101008083540402835291602001916115f1565b820191906000526020600020905b8154815290600101906020018083116115d457829003601f168201915b5050505050815260200160038201805461160a90612007565b80601f016020809104026020016040519081016040528092919081815260200182805461163690612007565b80156116835780601f1061165857610100808354040283529160200191611683565b820191906000526020600020905b81548152906001019060200180831161166657829003601f168201915b50505050508152505081526020019060010190611421565b50505050905060005b8151811015611753578181815181106116e6577f4e487b7100000000000000000000000000000000000000000000000000000000600052603260045260246000fd5b6020026020010151858581518110611727577f4e487b7100000000000000000000000000000000000000000000000000000000600052603260045260246000fd5b6020026020010181905250838061173d9061206a565b945050808061174b9061206a565b9150506116a4565b505080806117609061206a565b91505061134f565b5081935050505090565b82805461177e90612007565b90600052602060002090601f0160209004810192826117a057600085556117e7565b82601f106117b957805160ff19168380011785556117e7565b828001600101855582156117e7579182015b828111156117e65782518255916020019190600101906117cb565b5b5090506117f49190611820565b5090565b6040518060800160405280606081526020016060815260200160608152602001606081525090565b5b80821115611839576000816000905550600101611821565b5090565b600061185061184b84611e37565b611e12565b90508281526020810184848401111561186857600080fd5b611873848285611fc5565b509392505050565b60008135905061188a816121a0565b92915050565b600082601f8301126118a157600080fd5b81356118b184826020860161183d565b91505092915050565b600080604083850312156118cd57600080fd5b60006118db8582860161187b565b925050602083013567ffffffffffffffff8111156118f857600080fd5b61190485828601611890565b9150509250929050565b60008060006060848603121561192357600080fd5b60006119318682870161187b565b935050602084013567ffffffffffffffff81111561194e57600080fd5b61195a86828701611890565b925050604084013567ffffffffffffffff81111561197757600080fd5b61198386828701611890565b9150509250925092565b600080600080608085870312156119a357600080fd5b600085013567ffffffffffffffff8111156119bd57600080fd5b6119c987828801611890565b945050602085013567ffffffffffffffff8111156119e657600080fd5b6119f287828801611890565b935050604085013567ffffffffffffffff811115611a0f57600080fd5b611a1b87828801611890565b925050606085013567ffffffffffffffff811115611a3857600080fd5b611a4487828801611890565b91505092959194509250565b6000611a5c8383611b71565b905092915050565b6000611a708383611cb6565b905092915050565b6000611a8382611e9d565b611a8d8185611ed8565b935083602082028501611a9f85611e68565b8060005b85811015611adb5784840389528151611abc8582611a50565b9450611ac783611ebe565b925060208a01995050600181019050611aa3565b50829750879550505050505092915050565b6000611af882611ea8565b611b028185611ee9565b935083602082028501611b1485611e78565b8060005b85811015611b505784840389528151611b318582611a64565b9450611b3c83611ecb565b925060208a01995050600181019050611b18565b50829750879550505050505092915050565b611b6b81611f8f565b82525050565b6000611b7c82611eb3565b611b868185611efa565b9350611b96818560208601611fd4565b611b9f81612140565b840191505092915050565b6000611bb582611eb3565b611bbf8185611f0b565b9350611bcf818560208601611fd4565b611bd881612140565b840191505092915050565b6000611bee82611eb3565b611bf88185611f1c565b9350611c08818560208601611fd4565b80840191505092915050565b60008154611c2181612007565b611c2b8186611f1c565b94506001821660008114611c465760018114611c5757611c8a565b60ff19831686528186019350611c8a565b611c6085611e88565b60005b83811015611c8257815481890152600182019150602081019050611c63565b838801955050505b50505092915050565b6000611ca0602683611f0b565b9150611cab82612151565b604082019050919050565b60006080830160008301518482036000860152611cd38282611b71565b91505060208301518482036020860152611ced8282611b71565b91505060408301518482036040860152611d078282611b71565b91505060608301518482036060860152611d218282611b71565b9150508091505092915050565b6000611d3a8284611be3565b915081905092915050565b6000611d518284611c14565b915081905092915050565b60006040820190508181036000830152611d768185611a78565b90508181036020830152611d8a8184611a78565b90509392505050565b60006020820190508181036000830152611dad8184611aed565b905092915050565b6000602082019050611dca6000830184611b62565b92915050565b60006020820190508181036000830152611dea8184611baa565b905092915050565b60006020820190508181036000830152611e0b81611c93565b9050919050565b6000611e1c611e2d565b9050611e288282612039565b919050565b6000604051905090565b600067ffffffffffffffff821115611e5257611e51612111565b5b611e5b82612140565b9050602081019050919050565b6000819050602082019050919050565b6000819050602082019050919050565b60008190508160005260206000209050919050565b600081519050919050565b600081519050919050565b600081519050919050565b6000602082019050919050565b6000602082019050919050565b600082825260208201905092915050565b600082825260208201905092915050565b600082825260208201905092915050565b600082825260208201905092915050565b600081905092915050565b6000611f3282611fbb565b9150611f3d83611fbb565b9250827fffffffffffffffffffffffffffffffffffffffffffffffffffffffffffffffff03821115611f7257611f716120b3565b5b828201905092915050565b6000611f8882611f9b565b9050919050565b60008115159050919050565b600073ffffffffffffffffffffffffffffffffffffffff82169050919050565b6000819050919050565b82818337600083830152505050565b60005b83811015611ff2578082015181840152602081019050611fd7565b83811115612001576000848401525b50505050565b6000600282049050600182168061201f57607f821691505b60208210811415612033576120326120e2565b5b50919050565b61204282612140565b810181811067ffffffffffffffff8211171561206157612060612111565b5b80604052505050565b600061207582611fbb565b91507fffffffffffffffffffffffffffffffffffffffffffffffffffffffffffffffff8214156120a8576120a76120b3565b5b600182019050919050565b7f4e487b7100000000000000000000000000000000000000000000000000000000600052601160045260246000fd5b7f4e487b7100000000000000000000000000000000000000000000000000000000600052602260045260246000fd5b7f4e487b7100000000000000000000000000000000000000000000000000000000600052604160045260246000fd5b6000601f19601f8301169050919050565b7f496e76616c6964205348412d3235362068617368206f722066696c65206e6f7460008201527f20666f756e640000000000000000000000000000000000000000000000000000602082015250565b6121a981611f7d565b81146121b457600080fd5b5056fea26469706673582212207bc1e12e7e65698ea60386db87d5ecd37bfcd7591b38820746491d2e1d6ad11564736f6c63430008030033",
  "linkReferences": {},
  "deployedLinkReferences": {}
}